:020000040800F2
:10000000280400202D1700083517000837170008AE
:10001000391700083B1700083D17000800000000D2
:100020000000000000000000000000003F17000872
:10003000411700080000000043170008451700089A
:100040004717000847170008471700084717000818
:100050004717000847170008471700084717000808
:1000600047170008471700084717000847170008F8
:1000700047170008471700084717000847170008E8
:1000800047170008471700084717000847170008D8
:1000900047170008471700084717000847170008C8
:1000A00047170008471700084717000847170008B8
:1000B00047170008471700084717000847170008A8
:1000C0004717000847170008471700084717000898
:1000D0004717000847170008471700084717000888
:1000E000471700084717000847170008DFF80CD02B
:1000F00001F01CFC00480047010100082804002012
:1001000000F058F800F00EF809E04FF48051044870
:1001100000F08DF94FF48041014800F086F9F4E7D2
:10012000000C014000B587B00121C80200F088FB37
:100130000020ADF810004EF66020ADF8140000204D
:10014000ADF81600ADF8120004A9194800F0B4FC8F
:100150006020ADF800000120ADF802000420ADF8E9
:10016000040042F21070ADF806000020ADF808005F
:100170000820ADF80A004001ADF80C000020ADF8F1
:100180000E0069460A4800F0D4FC0821084801F036
:100190001FF90121064801F0EBF80121044800F0A5
:1001A000F3FF0121024800F0E3FF07B000BD0000AB
:1001B000002C014008B501210C2000F041FB4FF458
:1001C000A040ADF8000003208DF8020010208DF84B
:1001D000030069460D4800F07DF84FF480510B484C
:1001E00000F023F94FF48041084800F01EF94FF465
:1001F0008070ADF8000003208DF8020018208DF803
:1002000003006946024800F065F808BD000C014093
:100210000008014010B50446CA48844208D10121B3
:10022000042000F027FB0021042000F023FB46E01F
:10023000C548844208D10121082000F01BFB0021A1
:10024000082000F017FB3AE0C048844208D10121A1
:10025000102000F00FFB0021102000F00BFB2EE01F
:10026000BB48844208D10121202000F003FB00217B
:10027000202000F0FFFA22E0B648844208D1012194
:10028000402000F0F7FA0021402000F0F3FA16E0D9
:10029000B148844208D10121802000F0EBFA00210E
:1002A000802000F0E7FA0AE0AC48844207D101213F
:1002B000801500F0DFFA0021A01500F0DBFA10BD78
:1002C00010B50121084600F0D5FA0021012000F008
:1002D000D1FA10BD2DE9F04102460025002600208C
:1002E00000230024002791F803C00CF00F0591F8BB
:1002F00003C01CF0100F03D091F802C04CEA0505B2
:1003000091F800C0BCF1000F31D0146800202BE040
:100310004FF0010C0CFA00F3B1F800C00CEA030630
:100320009E4220D183004FF00F0C0CFA03F7BC4320
:1003300005FA03FC4CEA040491F803C0BCF1280F51
:1003400006D14FF0010C0CFA00FCC2F814C00AE010
:1003500091F803C0BCF1480F05D14FF0010C0CFA25
:1003600000FCC2F810C0401C0828D1D31460B1F8BA
:1003700000C0BCF1FF0F34DD546800202EE000F116
:10038000080C4FF0010808FA0CF3B1F800C00CEAB1
:1003900003069E4221D183004FF00F0C0CFA03F7A5
:1003A000BC4305FA03FC4CEA040491F803C0BCF119
:1003B000280F05D100F1080C08FA0CF8C2F81480D7
:1003C00091F803C0BCF1480F07D100F1080C4FF0C1
:1003D000010808FA0CF8C2F81080401C0828CED397
:1003E0005460BDE8F0814FF6FF71018002218170F9
:1003F0000421C17070470246002093680B4201D06F
:10040000012000E0002070470146886880B27047F4
:1004100002460020D3680B4201D0012000E00020FA
:1004200070470146C86880B27047016170474161FA
:1004300070470AB1016100E041617047C1607047D7
:100440004FF480320A4382618161826182698269EC
:10045000704702460020424B18684FF680731840E0
:1004600040EA021008433E4B186070473D49C8619E
:100470007047F0B50A46002300240021002500F053
:100480000046B6F1004F02D1354EF16901E0344E1D
:100490007168C0F3034583B200F44016B6F5401FFF
:1004A00008D121F070612E4E766826F070662C4FD0
:1004B0007E6012E000F48016B6F5801F06D1032698
:1004C00006FA05F4A14341F0706106E0460D3601DD
:1004D00003FA06F6B14341F0706122B1460D3601D0
:1004E00003FA06F6314300F00046B6F1004F02D1A0
:1004F0001B4EF16101E01A4E7160F0BD30B5002273
:100500008B071C0F0F2303FA04F2154B08338C10D2
:1005100053F824309343124C08348D1044F825309E
:1005200023468C1053F824308C07240F00FA04F46F
:1005300023430B4C08348D1044F8253030BD0A4954
:100540000860704700080140000C014000100140A5
:100550000014014000180140001C0140002001402F
:100560000000014000002042DC002042DD4800681D
:1005700040F00100DB49086008464068DA4908405D
:10058000D849486008460068D8490840D5490860FD
:100590000846006820F4802008600846406820F47F
:1005A000FE0048604FF41F0088607047CD4909681D
:1005B00021F48031CB4A11601146096821F4802171
:1005C0001160B0F5803F03D0B0F5802F0ED106E06A
:1005D000C449096841F48031C24A116007E0C14949
:1005E000096841F4A021BF4A116000E000BF00BFCC
:1005F000704710B501460022002300204A11012A4D
:1006000002D1B84C236806E0022A02D1B54C236A15
:1006100001E0B44C636A01F01F02012494401C42C3
:1006200001D0012000E0002010BD38B5002000906E
:100630000024002500BF3120FFF7DBFF05460098AE
:10064000401C00900098B0F5A06F01D0002DF2D0B2
:100650003120FFF7CEFF08B1012400E0002420463E
:1006600038BD014600209F4A106820F0F80040EA9B
:10067000C100106070479E49086070470246002024
:10068000984B586820F47C1042EA01031843954BBC
:100690005860704796490866704701460020914AA5
:1006A000506820F003000843506070478D48406850
:1006B00000F00C007047014600208A4A506820F084
:1006C000F00008435060704701460020854A50689A
:1006D00020F4E06008435060704701460020814AE2
:1006E000506820F4605040EAC1005060704729B162
:1006F0007C4A527A02437B4B5A7204E0794A527A1E
:100700008243784B5A7270477A49086070470146B5
:100710000020744A506820F44040084350607047FD
:100720000021754A11706F4A82F82010012802D00A
:10073000042808D103E001216F4A117004E005216B
:100740006D4A117000E000BF00BF70476B49086040
:1007500070476449096A0143624A116270476749F8
:1007600044390860704730B500210022002400237E
:100770005C4D6D6805F00C0121B1042905D00829F4
:1007800023D105E05E4D056022E05D4D05601FE070
:10079000544D6D6805F47012524D6D6805F4803447
:1007A000022505EB92421CB9564D554305600BE0FE
:1007B0004C4D6D6815F4003F03D0524D5543056014
:1007C00002E04F4D5543056002E04D4D056000BF0E
:1007D00000BF444D6D6805F0F00109094A4D6B5C9E
:1007E0000568DD4045603F4D6D6805F4E061090A2C
:1007F000454D6B5C4568DD4085603A4D6D6805F49C
:100800006051C90A404D6B5C4568DD40C560354D9F
:100810006D6805F44041890B3C4D6B5CC568B5FBC8
:10082000F3F5056130BD29B12E4A526902432D4BC3
:100830005A6104E02B4A526982432A4B5A6170473D
:1008400029B1284A92690243264B9A6104E0254A5D
:1008500092698243234B9A61704729B1214AD26938
:100860000243204BDA6104E01E4AD26982431D4BE9
:10087000DA61704729B11B4AD2680243194BDA602A
:1008800004E0184AD2688243164BDA60704729B1F7
:10089000144A12690243134B1A6104E0114A1269A7
:1008A0008243104B1A617047144940390860704701
:1008B0000F49C86470470B49C87170470948406ABE
:1008C00040F0807007494862704701460020054AA1
:1008D00092680A4201D0012000E0002070470149DF
:1008E00088727047001002400000FFF8FFFFF6FE1C
:1008F00000004242D800424220100240800442429E
:1009000000127A0000093D000000002010000020C5
:1009100010B50446FE48844208D10121C014FFF7F7
:10092000A9FF0021E014FFF7A5FFC4E0B4F1804F58
:1009300008D101210846FFF7AAFF00210120FFF797
:10094000A6FFB8E0F348844208D101210220FFF756
:100950009EFF00210220FFF79AFFACE0EE488442A0
:1009600008D101210420FFF792FF00210420FFF7A6
:100970008EFFA0E0E948844208D101210820FFF75A
:1009800086FF00210820FFF782FF94E0E4488442BC
:1009900008D101211020FFF77AFF00211020FFF776
:1009A00076FF88E0DF48844208D101212020FFF74C
:1009B0006EFF00212020FFF76AFF7CE0DA488442C6
:1009C00008D101214014FFF755FF00216014FFF703
:1009D00051FF70E0D548844209D10121C804FFF7D6
:1009E00049FF00214FF40020FFF744FF63E0D048A7
:1009F000844209D101210805FFF73CFF00214FF493
:100A00008010FFF737FF56E0CA48844209D1012120
:100A10004805FFF72FFF00214FF40010FFF72AFFD2
:100A200049E0C548844208D101214020FFF72FFF4B
:100A300000214020FFF72BFF3DE0C048844208D151
:100A400001218020FFF723FF00218020FFF71FFFF7
:100A500031E0BB48844208D101218015FFF717FF20
:100A60000021A015FFF713FF25E0B648844209D105
:100A700001210804FFF7FEFE00214FF48030FFF74C
:100A8000F9FE18E0B048844209D101214804FFF77B
:100A9000F1FE00214FF40030FFF7ECFE0BE0AB4815
:100AA000844208D101218804FFF7E4FE00214FF4BD
:100AB0008020FFF7DFFE10BD00220288944B984291
:100AC0000ED0994B98420BD0B0F1804F08D0914B8B
:100AD000984205D0904B984202D0904B984204D156
:100AE0004FF68F731A404B881A438D4B984207D0AC
:100AF0008C4B984204D04FF6FF431A40CB881A43E0
:100B000002808B8883850B880385814B98420BD0AC
:100B1000854B984208D08B4B984205D08A4B98421F
:100B200002D08A4B984201D10B7A0386012383823B
:100B3000704770B5002400220023058C4FF6FE7626
:100B400035400584028C8388048B4FF68F752C40CA
:100B5000B51E2C400D882C43751E2A400D892A4352
:100B60004D882A436A4DA8420BD06F4DA84208D049
:100B7000744DA84205D0744DA84202D0734DA842CE
:100B800013D14FF6F7752A404D892A434FF6FB756E
:100B90002A408D882A434FF6FF652B404FF6FF55BC
:100BA0002B408D892B43CD892B4383800483CD88B3
:100BB0008586028470BD70B5002400220023058C58
:100BC0004FF6EF7635400584028C8388048B48F617
:100BD000FF752C404FF6FF452C400D884FF6FF76F1
:100BE00006EA05252C434FF6DF752A400D8906EAF3
:100BF00005152A434D8806EA05152A43444DA842A7
:100C000002D0494DA8421DD14FF67F752A404D892B
:100C10004FF6FF7606EA05152A434FF6BF752A40C0
:100C20008D8806EA05152A434FF6FF352B404FF213
:100C3000FF752B408D8906EA85052B43CD8906EA91
:100C400085052B4383800483CD880587028470BD8E
:100C500070B5002400220023058C4FF6FF66354056
:100C60000584028C8388848B4FF68F752C404FF659
:100C7000FC752C400D882C434FF6FF552A400D89FA
:100C80004FF6FF7606EA05252A434D8806EA052534
:100C90002A431F4DA84202D0234DA8421DD14FF236
:100CA000FF752A404D894FF6FF7606EA05252A434F
:100CB0004FF6FF352A408D8806EA05252A434EF671
:100CC000FF752B404DF6FF752B408D8906EA051503
:100CD0002B43CD8906EA05152B4383808483CD8879
:100CE0008587028470BD70B5002200230024058C26
:100CF0004EF6FF7635400584038C8488828B48F657
:100D0000FF752A404FF6FF452A400D8820E000007D
:100D1000002C01400004004000080040000C00408E
:100D2000001000400014004000340140004C01401D
:100D3000005001400054014000180040001C0040D9
:100D400000200040004001400044014000480140B4
:100D50004FF6FF7606EA05252A434DF6FF752B4030
:100D60000D8906EA05352B434D8806EA05352B43E8
:100D7000FA4DA84202D0FA4DA84208D14BF6FF75B1
:100D80002C408D894FF6FF7606EA85152C4384802A
:100D90008283CD88A0F84050038470BD828B4FF2CF
:100DA000FF331A408283828B4FF6FF7303EA0123DD
:100DB0001A4382837047F0B50C4615460022002185
:100DC0000026078C4EF6FF7C07EA0C070784828B0F
:100DD000018C4FF6FF7707EA043640F6FF473A40AA
:100DE0004FF6FF7707EA05273A434FF6FF7707EA02
:100DF00003373A43D94FB8420ED0D94FB8420BD03F
:100E0000B0F1804F08D0D74FB84205D0D64FB84286
:100E100002D0D64FB84206D14DF6FF77394046F49E
:100E20008057394305E047F6FF57394044F480576F
:100E3000394382830184F0BD828B4FF6F3731A40ED
:100E40008283828B0A4382837047F0B50C46154635
:100E5000002200210026078C4FF6FF6C07EA0C07E2
:100E60000784828B018C4FF6FF7707EA04264FF642
:100E70000C773A404FF6FF7707EA03172F433A43C0
:100E8000B64FB8420ED0B64FB8420BD0B0F1804F3B
:100E900008D0B44FB84205D0B34FB84202D0B34FD8
:100EA000B84206D14FF6FF57394046F480773943B0
:100EB00005E04FF2FF57394044F48077394382838D
:100EC0000184F0BD028B4FF2FF331A400283028B84
:100ED0004FF6FF7303EA01231A4302837047F0B50C
:100EE0000C461546002200210026078C4FF6EF7CA9
:100EF00007EA0C070784028B018C4FF6FF7707EA9D
:100F0000041640F6FF473A404FF6FF7707EA0337EB
:100F10003A434FF6FF7707EA05273A438F4FB84227
:100F20000ED08F4FB8420BD0B0F1804F08D08D4F0C
:100F3000B84205D08C4FB84202D08C4FB84206D18F
:100F40004FF6DF77394046F01007394305E04FF69A
:100F50005F77394044F01007394302830184F0BDC4
:100F6000028B4FF6F3731A400283028B0A4302830B
:100F70007047F0B50C46154600220021068C4FF64E
:100F8000FE773E400684028B018C4FF60C76324091
:100F90007E1C06EA03162E433243704EB0420ED03A
:100FA0006F4EB0420BD0B0F1804F08D06D4EB042C2
:100FB00005D06D4EB04202D06C4EB04206D14FF615
:100FC000FD76314044F00106314305E04FF6F576F9
:100FD000314044F00106314302830184F0BD70B515
:100FE00005460C465D4885420ED05D4885420BD0D3
:100FF000B5F1804F08D05B48854205D05A488542FC
:1010000002D05A48854200D100E000BF208850B984
:101010002389A28861882846FFF7ABFFE18828462C
:10102000FFF79EFF25E0208804280AD12389A288A3
:1010300061882846FFF753FFE1882846FFF742FF03
:1010400017E0208808280AD12389A28861882846C9
:10105000FFF7FBFEE1882846FFF7EEFE09E0238953
:10106000A28861882846FFF7A6FEE1882846FFF798
:1010700095FE70BD2DE9F04105460C46002601277E
:10108000608808B9022600E00026A088012801D166
:10109000022700E001272088A0B92389A28861885F
:1010A0002846FFF766FFE1882846FFF759FF2389A6
:1010B0003A4631462846FFF712FFE1882846FFF7F7
:1010C00001FF13E02389A28861882846FFF707FF04
:1010D000E1882846FFF7F6FE23893A46314628463E
:1010E000FFF747FFE1882846FFF73AFFBDE8F081A8
:1010F0000A884B881A438B881A43CB881A430B897A
:101100001A434B891A438B891A43A0F8442070472D
:101110004FF6FF71818000210180C1804180017202
:1011200070470021018041808180C180018141811F
:101130008181C1817047002101804180012181802E
:101140000021C180018170470021018041808180A0
:10115000C18001814181818170470000002C0140E4
:10116000003401400004004000080040000C004032
:1011700021B1028842F00102028004E002884FF6A9
:10118000FE731A400280704731B1B0F8442042F437
:101190000042A0F8442005E0B0F84420C2F30E025B
:1011A000A0F8442070471AB183890B43838102E081
:1011B00083898B43838170478182704741EA0203B0
:1011C000A0F8483070471AB183890B43838102E04D
:1011D00083898B438381704701894FF6F8721140F0
:1011E000018170470A46002101894FF68F7319402B
:1011F00011430181704730B504460D46294620460B
:10120000FFF7F0FF208940F00700208130BD2DE975
:10121000F04104460D4616461F46602D06D13B465A
:10122000012231462046FFF75AFE05E03B460122E7
:1012300031462046FFF79DFE29462046FFF7D2FFA4
:10124000208940F007002081BDE8F08130B50C46D0
:1012500000210189C9B24FF6FF7505EA0325154340
:1012600025432943018130BD2DE9F04105460E4655
:1012700017469846002443463A4631462846FFF72B
:10128000E5FF2C894FF6F870044044F007044FF650
:101290008F70044044F070042C81BDE8F081F0B5FB
:1012A00004460D4616461F463B4632462946204612
:1012B000FFF7CCFF208940F480402081F0BD0185FC
:1012C000828270470A46002101884FF68F731940C9
:1012D000114301807047F0B50C4615461E460021AB
:1012E000002200230189028B038C4FF6F8773940E6
:1012F00021434FF6FC473A4040F201173A434FF67C
:10130000DD773B404FF6FF7707EA06172F433B4355
:10131000018102830384F0BD0A460021018B4FF650
:101320008F7319401143018370470A460021018BD6
:1013300048F6FF7319404FF6FF7303EA022319437F
:10134000018370470A460021818B4FF68F73194045
:101350001143818370470A460021818B48F6FF7351
:1013600019404FF6FF7303EA022319438183704744
:1013700021B1028842F08002028004E002884FF628
:101380007F731A400280704721B1828842F00402C4
:10139000828004E082884FF6FB731A408280704797
:1013A00021B1828842F00802828004E082884FF6F0
:1013B000F7731A408280704721B1828842F001029F
:1013C000828004E082884FF6FE731A408280704764
:1013D0000A460021018B4FF6F77319401143018330
:1013E00070470A460021018B4FF2FF7319404FF6F8
:1013F000FF7303EA02231943018370470A46002161
:10140000818B4FF6F77319401143818370470A4669
:101410000021818B4FF2FF7319404FF6FF7303EAEF
:1014200002231943818370470A460021018B4FF63E
:10143000FB7319401143018370470A460021018B59
:101440004FF6FF3319404FF6FF7303EA02231943A7
:10145000018370470A460021818B4FF6FB731940C8
:101460001143818370470A460021818B4FF6FF3379
:1014700019404FF6FF7303EA022319438183704733
:101480000A460021018B4FF67F73194011430183F7
:1014900070470A460021018BC1F30E014FF6FF731E
:1014A00003EA02231943018370470A460021818B16
:1014B0004FF67F7319401143818370470A4600211C
:1014C000818BC1F30E014FF6FF7303EA0223194328
:1014D000818370470A460021018C4FF6FD73194045
:1014E0001143018470470A460021018C4FF6F773BF
:1014F00019401143018470470A460021018C4FF6C0
:10150000DF7319404FF6FF7303EA02131943018496
:1015100070470A460021018C4FF67F7319404FF641
:10152000FF7303EA02131943018470470A4600213E
:10153000018C4FF6FF5319404FF6FF7303EA022365
:101540001943018470470A460021018C4FF2FF7352
:1015500019404FF6FF7303EA0223194301847047D1
:101560000A460021018C4DF6FF7319404FF6FF73B8
:1015700003EA023319430184704730B50023012484
:101580008C40A3B2048C9C430484048C02FA01F5C1
:10159000ADB22C43048430BD30B5002304248C400C
:1015A000A3B2048C9C430484048C02FA01F5ADB20E
:1015B0002C43048430BD70B5034600200024184637
:1015C000183001258D40ACB21D8CA5431D8409B196
:1015D000082909D100EB6100056825F07005056058
:1015E0000568154305600EE00D1FC5F34E05284440
:1015F000056825F4E045056005684FF6FF7606EAC4
:1016000002263543056070BD21B1028842F0020216
:10161000028004E002884FF6FD731A400280704792
:1016200021B1028842F00402028004E002884FF6F1
:10163000FB731A400280704721B1828842F0800219
:10164000828004E082884FF67F731A408280704760
:1016500002884FF6F7731A40028002880A4302801C
:10166000704782884FF68F731A40828082880A43BF
:101670008280704702894FF6F8731A40028102890E
:101680000A430281704702894FF67F731A40028134
:1016900002890A43028170478184704781857047BF
:1016A000818670470187704781877047A0F8401096
:1016B000704702884FF6FF431A40028002880A43AF
:1016C000028070470146888E70470146088F704738
:1016D0000146888F70470146B1F8400070470146C7
:1016E000888C70470146088D704702460020138A97
:1016F0000B4201D0012000E000207047CA43028263
:10170000704730B50246002000230024158A05EA00
:101710000103958905EA010413B10CB1012000E031
:10172000002030BDCA43028270470000064880474F
:1017300006480047FEE7FEE7FEE7FEE7FEE7FEE7B6
:10174000FEE7FEE7FEE7FEE72D180008ED000008C3
:101750000CB50020019000906B48006840F4803088
:101760006949086000BF6848006800F400300090D4
:101770000198401C0190009818B90198B0F5A06F2D
:10178000F1D16148006810F4003F02D001200090C0
:1017900001E0002000900098012842D15B480068D9
:1017A00040F01000594908600846006820F0030026
:1017B00008600846006840F002000860524840682F
:1017C000514948600846406848600846406840F40F
:1017D000806048600846406820F47C1048600846F5
:1017E000406840F4E81048600846006840F08070A7
:1017F000086000BF4448006810F0007FFAD04248FB
:10180000406820F00300404948600846406840F0C6
:101810000200486000BF3C48406800F00C00082807
:10182000F9D10CBD10B5FFF793FF10BD10B53648C8
:10183000006840F0010034490860084640683449B7
:1018400008403149486008460068324908402E493E
:1018500008600846006820F4802008600846406858
:1018600020F4FE0048604FF41F008860FFF7DAFFA5
:101870004FF000602849086010BD10B5002100201D
:101880000022214B5B6803F00C0121B1042906D032
:10189000082928D107E0214B214C236027E01F4B6A
:1018A0001F4C236023E0184B5B6803F47010164B49
:1018B0005B6803F48032022303EB904022B9194B9A
:1018C0004343174C23600DE00F4B5B6813F4003F5C
:1018D00004D0144B4343124C236003E00F4B4343AB
:1018E0000F4C236003E00D4B0D4C236000BF00BF85
:1018F000054B5B68C3F303130B4CE15C084B1B689F
:10190000CB40074C236010BD001002400020024075
:101910000000FFF8FFFFF6FE08ED00E000127A007D
:101920001400002000093D0018000020064C074D5F
:1019300006E0E06840F0010394E80700984710349F
:10194000AC42F6D3FEF7D6FB7019000890190008D8
:1019500002E008C8121F08C1002AFAD17047704778
:10196000002001E001C1121F002AFBD170470000D6
:1019700090190008000000202800000050190008FD
:10198000B8190008280000200004000060190008B1
:101990000000000001020304010203040607080915
:1019A0000204060800A24A04000000000000000033
:0819B000010203040607080907
:04000005080000ED02
:00000001FF
