:020000040800F2
:10000000E006002071250008F1030008F303000852
:10001000F5030008F7030008F903000800000000DA
:10002000000000000000000000000000FB030008CA
:10003000FD03000800000000FF03000801040008A1
:100040008B2500088B2500088B2500088B250008D0
:100050008B2500088B2500088B2500088B250008C0
:100060008B2500088B2500088B250008650A0008F1
:100070008B2500088B2500088B2500088B250008A0
:100080008B2500088B2500088B2500088B25000890
:100090008B2500088B2500088B2500088B25000880
:1000A0008B2500088B2500088B2500088B25000870
:1000B000730400088B2500088B2500088B25000899
:1000C0008B2500088B2500088B2500088B25000850
:1000D0008B2500088B2500088B2500088B25000840
:1000E0008B2500088B2500088B250008DFF80CD035
:1000F00002F014FE0048004701010008E00600205D
:100100001CB502F0D9F94FF4A06000F011FD00F029
:1001100091FB00F001FC00F0B3F800F0DDF900F015
:1001200076F800F080F92C4FDFF8B0902C4E2D4C73
:100130002D4D4FF000083878302841D0312839D083
:1001400032281DD03328F6D199F80000C0B12748D5
:10015000006802F0C6FC824625488B46006802F023
:10016000C0FC02460B462348CDE900AB00F056FA2E
:100170002049D1E9100102F0EFFC306089F80080DD
:100180002078B8B1306802F0ACFC82461A488B4641
:10019000006802F0A6FC02460B461848CDE900AB09
:1001A00000F03CFA1549D1E9100102F07BFC28600F
:1001B00084F8008041F28831286800F0C6F8BAE778
:1001C0000F48007820B10128B5D100F0E8F8B2E777
:1001D00000F0F6F8AFE70000080000200B00002058
:1001E000180000200A0000200C0000202000002041
:1001F0001C000020C8010020140000202001002065
:10020000000000201B4947F6FF700880704738B592
:100210000121042000F0F0FD0121022000F0F5FD95
:10022000C020ADF8000004208DF803006946124894
:1002300000F089FE0F4C0223243C1A46032120467D
:1002400001F096FD0121204601F015FD094947F610
:10025000FF70088038BD0948017831B10549088828
:1002600047F6FF72101A0A807047012101700020C2
:1002700070470000240400400008014001000020F5
:1002800030B589B0012140F6040000F0B5FD012130
:10029000082000F0B1FD4FF48070ADF81000182078
:1002A0008DF8130003248DF8124004A94D4800F086
:1002B0004AFE4FF4A040ADF8100010208DF8130056
:1002C0008DF81240484C04A9204600F03CFE4FF443
:1002D0008041204600F0A1FEA114204600F09FFEC0
:1002E00041F288300024ADF81800404DADF81440BC
:1002F000ADF81A40ADF8164005A9284601F012FAEB
:100300007020ADF800000120ADF802000220ADF829
:100310000800ADF80440ADF80C40ADF80640ADF86B
:100320000A40ADF80E406946284601F034FA012132
:10033000284601F056FD0121284601F0A6FC0121C6
:10034000284601F098FC09B030BD2DE9F041044683
:10035000002900DC49420D464FF48041224E8F10A7
:10036000002C30460ADA00F05AFE3946304600F0DA
:1003700054FE684284420CDA044608E000F04DFE68
:100380003946304600F04BFEAC4200DD2C46002CD6
:1003900000DC6442154834300480BDE8F081134924
:1003A000002010B5343108800F4C4FF480412046B6
:1003B00000F035FEA1142046BDE8104000F02FBE2D
:1003C0000A4910B5343141F288300880064C4FF4A8
:1003D0008041204600F023FEA1142046BDE81040D5
:1003E00000F01DBE00080140000C0140002C01403F
:1003F0007047FEE7FEE7FEE7FEE77047704770478D
:100400007047000010B501218C07204601F033FC35
:1004100001221146204601F043FC2046BDE8104071
:10042000012101F04FBE1FB50121084600F0EDFC8F
:100430001C208DF80C0002208DF80D0001208DF895
:100440000E008DF80F0003A800F077FB2320ADF815
:1004500000000020ADF80200ADF806004FF47A600D
:10046000ADF804006946400601F05CF9FFF7CAFFE9
:100470001FBD10B501218C07204601F026FE002883
:100480001ED00121204601F01DFEFFF7E4FE0D49BC
:10049000044641F64C500968604390FBF1F002F0CD
:1004A000F8FA09490860204602F0F3FA074C21687F
:1004B00002F082F8064920600120087005490870A2
:1004C00010BD000004000020140000201C000020CB
:1004D0000B0000200A00002070B586B00121042026
:1004E00000F08AFC0121480400F08FFC0820ADF8E0
:1004F0001000354D04248DF8134004A9284600F05F
:1005000022FDADF8104018208DF8130003208DF85F
:10051000120004A9284600F016FD2C4D284601F0D3
:10052000E3FD00244FF4E1300090ADF808400C20CA
:10053000ADF80440ADF80A00ADF80640ADF80C4047
:100540006946284601F000FE40F22556314628460D
:1005500001F030FF3146284601F04EFF01223146BE
:10056000284601F073FE26208DF814008DF8154002
:100570008DF8164001208DF8170005A800F0DDFA6F
:100580000121284601F058FE06B070BD70B50F4C31
:1005900005464021204601F006FF0028F9D02946F3
:1005A0002046BDE8704001F09DBE70B5074D044681
:1005B0004021284601F0F7FE0028F9D0E1B2284694
:1005C00001F090FE204670BD00080140004400404C
:1005D000A82101F0E6BF2DE9F04FDDE90F14DDE9B8
:1005E0000D56DDE9097CDDE9168EDDE90B9ADDF8B3
:1005F0004CB0C0E9081480E88C10C0E90656C0E988
:10060000049A119981621499C0E926B11599C0E93B
:100610002418189AC0E928E2BDE8F08F2DE9F04FC0
:1006200085B00446DDE90E010025174698462E46A2
:10063000C4E9160102F02FF9C4E91C01C4E92278CB
:10064000D4E91A2302F027F9D4E9002302F029F9AA
:10065000CDE90201D4E928010022134602F054FA40
:1006600014D0D4E91A01D4E9282302F061FA3FD268
:10067000D4E91C010022134602F05AFA02D20020EB
:10068000014601E0D4E91C01C4E91C01D4E90601DA
:100690000022134602F038FA0FD0D4E91C01D4E945
:1006A000062302F031FA10D8D4E90601D4E91C235C
:1006B00081F0004102F028FA07D8D4E90201D4E918
:1006C0001C2302F0EEF805460E46A06A08B310346B
:1006D0000122D4E91C0102F0C5F9D4E91E2302F07D
:1006E000DDF8D4E91A2302F035F874E804231FE09A
:1006F000D4E92801D4E91A2381F0004102F018FA64
:10070000C4D2D4E91C010022134602F011FAB9D375
:10071000B5E7D4E91A01012202F0A4F9D4E91C23B7
:1007200002F0BCF8D4E9182302F014F8D4E9042349
:1007300002F0B7F820340491D4E90C91D4E90E8288
:100740008A46174683464A4653463946404602F093
:10075000A2F8D4E91C2302F0A4F8CDE9000101229B
:100760004846514602F07EF942463B4602F096F872
:10077000D4E90A2301F0EEFFD4E91E2302F091F838
:1007800007468846DDE902012A46334601F0E2FFCA
:100790005A46049B01F0DEFFDDE9002301F0DAFF99
:1007A0003A46434601F0D6FFC4E9060102460B462D
:1007B000D4E9040101F0CEFFC4E9080174E808019E
:1007C0000022134602F0A0F915D0D4E91001D4E9B3
:1007D000082302F0ADF9D4E908010AD3D4E91023C3
:1007E00081F0004102F0A4F905D2D4E9080181F0BA
:1007F0000041C4E910013034D4E90401C4E9000126
:10080000D4E90801C4E90601D4E90A01C4E90801F0
:10081000D4E90E01C4E90C01D4E91001C4E90E01C8
:10082000D4E91401C4E91201D4E91601C4E91401A0
:1008300005B0F1E630B591B02F48FFF7C9FE0020B2
:100840002E49CDE90C00CDE90E01CDE90A000446A0
:10085000089001462A482E4DCDE90610002129486E
:10086000CDE90211CDE9041028492748CDE900015E
:1008700000222B462048FFF7AEFE1F48A830FFF7A6
:10088000A7FE0020CDE90E00CDE90C00CDE90A005D
:1008900001461B480894CDE906100021CDE904115A
:1008A000CDE9021119491848CDE90001124800228A
:1008B0002B46A830FFF78FFE0F48A838FFF788FEB9
:1008C0000020CDE90E00CDE90C00CDE90A0001467B
:1008D0000A480894CDE906100021CDE90411CDE9BC
:1008E0000211CDE9001104480A460A4BA838FFF767
:1008F00072FE11B030BD0000200100200094B14014
:100900000070B7400040AF407B14AE47E17A843FAF
:100910000000F03F00001E4070B5012192B0084673
:1009200000F061FA01214FF4027000F065FA012530
:10093000ADF8445000248DF8474003208DF8460060
:1009400011A9714800F0FFFA704E304600F06EFDBC
:100950006F4800906F48CDE901043720CDE90304CA
:10096000802005904000069080000790202008908D
:100970000002CDE909046946304600F0C4FD0122B9
:100980000221304600F0F4FD0B208DF840000221DA
:100990008DF841108DF842108DF8435010A800F0EA
:1009A000CCF80121304600F0D8FD8DF830400B9492
:1009B0008DF831504FF46020CDE90D04544C8DF882
:1009C0003C504C3C0BA9204600F0B4FB4FF4404097
:1009D00000F0A7F9032301220821204600F02AFC99
:1009E0000121204600F0D8FB0121204600F0CAFB7F
:1009F000204600F0E4FB204600F0E6FB0028FAD198
:100A0000204600F0E8FB204600F0EAFB0028FAD17F
:100A10000121204600F0EBFB12B070BD2DE9F0473C
:100A20000025394E3B4F2C464FF480484FF48059F7
:100A30004146304600F0DDFA012804D149463046EF
:100A400000F0D7FA50B137F814002D1A641C372C77
:100A5000EEDB372095FBF0F0BDE8F08737F81400A7
:100A60000544F3E72DE9F041022000F0A6FD01283E
:100A700048D1022000F097FD022000F0ACFD264C8A
:100A80006069A06120696061E0682061A068E06041
:100A90006068A060FFF7C2FF01F0FBFF07466060DF
:100AA000206802F01EF805460E461C49384601F043
:100AB000DBFD02F016F81A4A1A4B01F064FF2A46D1
:100AC000334601F0E8FE02F047F8174901260860B6
:100AD000014616480670606A002813D1E5696D1C4E
:100AE000E561A06A01F068FD0746A062206A8542C0
:100AF00008DB2846666201F0CCFF0146384601F06B
:100B0000E9FD2060BDE8F081000C014008000240D2
:100B10004C240140700200202400002000404E457B
:100B20009A999999999999401000002009000020FC
:100B300027490843274908607047F0B50F21C4785A
:100B4000027801234FF0E026DCB1224C246845787E
:100B500004F4E064C4F5E064240AC4F10407E1404D
:100B60008478BD400C402C4321011B4C115500786A
:100B700000F01F018B40400906EB8000C0F80031F7
:100B8000F0BD02F01F008340500906EB8000C0F862
:100B90008031F0BD114A114001430E48001F016031
:100BA00070470C4A121D0029116801D0014300E072
:100BB0008143116070474FF0E0210428086903D099
:100BC00020F004000861704740F00400FAE70000DC
:100BD0000000FA050CED00E000E400E080FFFF1FDC
:100BE000A548016841F0010101604168A34A114034
:100BF00041600168A24A11400160016821F480212E
:100C00000160416821F4FE0141604FF41F018160E1
:100C1000704799490A6822F480320A600A6822F40F
:100C200080220A60B0F5803F07D0B0F5802F03D155
:100C3000086840F4A02008607047086840F48030DD
:100C4000F9E70246002053098B49012B0AD0022BF9
:100C50000AD0496A02F01F02012393400B4200D0E0
:100C6000012070470968F5E7096AF3E718B5002025
:100C70004FF4A06400903120FFF7E3FF0099491C76
:100C80000091A14201D00028F5D03120FFF7D9FF13
:100C9000002800D0012018BD77490A6822F0F80228
:100CA00042EAC00008607047764908607047724A9F
:100CB0005368084323F47C1318435060704771490C
:100CC000086670476C4A516821F003010143516086
:100CD00070476948406800F00C007047664A5168E8
:100CE00021F0F001014351607047634A516821F4DB
:100CF000E0610143516070475F494A6822F46052E5
:100D000042EAC000486070475B4A0029517A01D02E
:100D1000014300E08143517270475A49D83108605D
:100D20007047554A516821F4404101435160704772
:100D30005149002281F8202081F82020012802D08A
:100D4000042802D1052081F8200070474E49086030
:100D5000704749490A6A02430A6270474A4944395E
:100D60000860704730B544494A6812F00C03474A9E
:100D700003D0042B01D0082B22D002604A680F2335
:100D8000434C03EA1212A35C0268DA4042604B68EB
:100D9000072505EA1323E35C22FA03F383604B681B
:100DA00005EAD323E35C22FA03F2C2604968032315
:100DB00003EA9131231F595CB2FBF1F1016130BDAF
:100DC0004A684B6802F470124FF0020413F4803F3B
:100DD00004EB924202D04B689B0301D52D4B00E0FF
:100DE0002A4B5A43C9E7244A0029516901D00143DB
:100DF00000E08143516170471F4A0029916901D089
:100E0000014300E08143916170471B4A0029D16989
:100E100001D0014300E08143D1617047164A0029A7
:100E2000D16801D0014300E08143D1607047124A8C
:100E30000029116901D0014300E08143116170472D
:100E400011494039086070470E49C86470470A4923
:100E5000C87170470848416A41F08071416270472B
:100E6000054A0146002092680A4200D001207047DE
:100E70000149887270470000001002400000FFF82E
:100E8000FFFFF6FE000042428004424200127A0058
:100E90005400002000093D008F4910B5884206D15A
:100EA00001210420FFF7BAFF002104203BE08B4919
:100EB000884206D101210820FFF7B0FF0021082059
:100EC00031E08749884206D101211020FFF7A6FFB3
:100ED0000021102027E08349884206D101212020EB
:100EE000FFF79CFF002120201DE07F49884206D1AA
:100EF00001214020FFF792FF0021402013E07B49B1
:100F0000884206D101218020FFF788FF0021802040
:100F100009E0774988420AD1841501212046FFF76C
:100F20007DFF00212046BDE81040FFF777BF10BDD0
:100F300010B501210846FFF771FF0021BDE8104000
:100F40000120FFF76BBFF0B5CA78002502F00F0350
:100F5000D20601D58A7813430C784FF00F0E012288
:100F6000E4B104680F8802FA05F63740B74211D1A0
:100F70004FEA850C0EFA0CF724EA070703FA0CF483
:100F80003C43CF78282F02D0482F02D002E04661A0
:100F900000E006616D1C082DE4D304600C88FF2C72
:100FA0001ED944685FF0000606F1080702FA07F54B
:100FB0000F882F40AF420FD14FEA860C0EFA0CF784
:100FC000BC4303FA0CF73C43CF78282F00D145618E
:100FD000CF78482F00D10561761C082EE4D34460F9
:100FE000F0BD4FF6FF710180022181700421C170B4
:100FF00070470246002092680A4200D001207047E4
:10100000806880B2704702460020D2680A4200D051
:1010100001207047C06880B270470161704741612C
:1010200070470AB10161704741617047C160704704
:1010300041F4803282618161826181698069704797
:101040002C4B10B51A684FF68074224042EA00100B
:101050000843186010BD2849C8617047F0B5254C99
:10106000002801DAE36900E06368420D120185B2ED
:10107000C0F301579540C0F30346032F05D0C202C9
:101080000AD50322B240934307E023F070626368FD
:1010900023F07063636002E0AB4343F0706201B120
:1010A0002A43002801DAE261F0BD6260F0BD10B5AC
:1010B0008A0721F003040F49130F21440F228C6883
:1010C0009A4094438C608A68984002438A6010BDBD
:1010D0000949DC310860704700080140000C0140FC
:1010E000001001400014014000180140001C0140A4
:1010F000002001400000014000002042C54910B519
:10110000884202D1012144150AE0C349884202D134
:101110000121041504E0C14988420AD10121CC0310
:101120002046FFF77BFE2046BDE810400021FFF778
:1011300075BE10BD10B54268B94B0C791A400B68EA
:1011400042EA0422134343608368B64A1340D1E95C
:10115000024222434C7943EA44031A438260C26A42
:10116000097C22F47002491EC9B242EA0151C162EF
:1011700010BD00210160017141718160C1600121D8
:10118000017470470029816802D041F0010101E03B
:1011900021F00101816070470029816802D041F48B
:1011A000807101E021F4807181607047002A4268FB
:1011B000C9B201D00A4300E08A43426070478168A7
:1011C00041F00801816070470146002089680907E5
:1011D00000D501207047816841F0040181607047AB
:1011E000014600208968490700D501207047002981
:1011F000816802D041F4A00101E021F4A0018160E6
:101200007047014600208968490200D501207047D7
:101210004268491E22F4604242EA4131416070470F
:101220000029416802D041F4006101E021F400612D
:101230004160704770B5072409290AD9C568A1F132
:101240000A0606EB4606B440A543B3401D43C560FD
:1012500007E0056901EB4106B440A543B3401D43D7
:1012600005611F23072A09D2446B521E02EB82023A
:1012700093409C4391400C43446370BD0D2A09D2B6
:10128000046BD21F02EB820293409C4391400C43BB
:10129000046370BDC46A0D3A02EB820293409C4322
:1012A00091400C43C46270BD0029816802D041F4B2
:1012B000801101E021F4801181607047C06C80B220
:1012C000704754484C30006870470029416802D08C
:1012D00041F4806101E021F48061416070470029A0
:1012E000416802D041F4805101E021F48051416015
:1012F0007047826822F4E0420A4382607047002906
:10130000816802D041F4004101E021F40041816094
:1013100070470029816802D041F4021101E021F4F4
:10132000021181607047014600208968890200D55A
:101330000120704770B5072409290AD9C568A1F1B1
:101340000A0606EB4606B440A543B3401D43C560FC
:1013500007E0056901EB4106B440A543B3401D43D6
:101360000561836BC3F30154121B921C02EB8204D0
:101370001F22A2409343A1400B43836370BD826B45
:10138000491E22F4401242EA01518163704708B5B8
:1013900008440090026008BD08B508442830009059
:1013A000006880B208BD42681F4B1A400A43426081
:1013B0007047416282627047426822F01F020A430E
:1013C00042607047134908310028086802D040F491
:1013D000000001E020F40000086070470246002091
:1013E00012680A4200D001207047C943016070476B
:1013F00010B50246002054680B0AC9B20C401168AF
:10140000194202D0002C00D0012010BD6FEA11213A
:10141000016070470024014000280140003C014069
:10142000FFFEF0FFFDF7F1FFFFFD3FFF01684FF604
:10143000FE72114001600021016041608160C16065
:101440006A496A4A0839904203D1486840F00F005F
:1014500006E0664A1432904204D1486840F0F00039
:1014600048607047614A2832904203D1486840F48E
:101470007060F5E75D4A3C32904203D1486840F421
:101480007040EDE7594A5032904203D1486840F429
:101490007020E5E7554A6432904203D1486840F431
:1014A0007000DDE7514A7832904203D1486840F03D
:1014B0007060D5E74E4A111F904203D1086840F092
:1014C0000F0006E04A4A1432904204D1086840F006
:1014D000F00008607047464A2832904203D10868FD
:1014E00040F47060F5E7424A3C32904203D108680C
:1014F00040F47040EDE73E4A50329042EAD108682D
:1015000040F47020E5E730B5036847F6F072934386
:101510000C6A8A682243D1E904452C4322438C6932
:101520002243CC6922434C6A22438C6A22431A43E9
:101530000260CA6842600A6882604968C16030BD62
:101540000021016041608160C16001614161816190
:10155000C16101624162816270470029016802D065
:1015600041F0010102E04FF6FE7211400160704748
:10157000002A026801D00A4300E08A4302607047F3
:1015800041607047406880B2704701460020CA0041
:1015900002D5174A083A01E0144A083A12680A428A
:1015A00000D001207047C10003D51149091F086010
:1015B00070470E4908394860704701460020CA004C
:1015C00002D50B4A083A01E0084A083A12680A4272
:1015D00000D001207047C10003D50549091F0860EC
:1015E000704702490839486070470000080002400F
:1015F00008040240F94910B5884202D10121C414FF
:1016000086E0B0F1804F09D0F54988420DD1012123
:101610000220FFF70CFC0021022064E001210846B3
:10162000FFF705FC002101205DE0EE49884206D16C
:1016300001210420FFF7FBFB0021042053E0EA49CD
:10164000884206D101210820FFF7F1FB0021082084
:1016500049E0E649884206D101211020FFF7E7FB67
:10166000002110203FE0E249884206D101212020DC
:10167000FFF7DDFB0021202035E0DE49884202D162
:101680000121441444E0DC49884202D10121CC0408
:101690003EE0DA49884202D101210C0538E0D84900
:1016A000884202D101214C0532E0D649884206D158
:1016B00001214020FFF7BBFB0021402013E0D2496D
:1016C000884206D101218020FFF7B1FB0021802054
:1016D00009E0CE4988420AD1841501212046FFF74E
:1016E000A6FB00212046BDE81040FFF7A0BBC8497B
:1016F000884202D101210C040AE0C649884202D185
:1017000001214C0404E0C44988420AD101218C041F
:101710002046FFF783FB2046BDE810400021FFF77D
:101720007DBB10BD30B50288AC4BB24C98420DD099
:10173000A0420BD0B0F1804F08D0A94DA84205D0EF
:10174000A84DA84202D0A84DA84203D122F07005AE
:101750004A882A43A54DA84206D0A54DA84203D0E9
:1017600022F44075CA882A4302808A8882850A88C2
:10177000028598420AD0A04208D0A54A904205D0DE
:10178000A44A904202D0A44A904201D1097A01862B
:101790000121818230BD30B5028C22F00102028429
:1017A000028C8388048B22F0020224F073050C88DB
:1017B0002C430D8915434A882A43884DA8420BD0F3
:1017C0008C4DA84208D0924DA84205D0914DA84218
:1017D00002D0914DA8420DD122F008054A8923F488
:1017E00040732A4322F004058A882A438D891D43C9
:1017F000CB892B4383800483C9888186028430BDD2
:1018000070B5028C22F010020284028C8488038B53
:101810000D8823F4E6464FF6FF7303EA05253543AA
:101820000E8922F0200203EA061616434A8803EACC
:1018300002123243694EB04202D06E4EB04215D110
:1018400022F080064A8924F4406403EA02123243FB
:1018500022F040068A8803EA021232438E8903EAA4
:1018600086062643CC8903EA8404344384800583B6
:10187000C9880187028470BD70B5028C22F4807221
:101880000284028C8488838B0D8823F073031D43AC
:1018900022F400730E894FF6FF7202EA06261E43F9
:1018A0004B8802EA032333434C4EB04202D0514EE0
:1018B000B04215D123F400664B8924F4405402EA67
:1018C0000323334323F480668B8802EA03233343E4
:1018D0008E8902EA06162643CC8902EA04143443B0
:1018E00084808583C9888187038470BD70B5028C2C
:1018F00022F480520284048C8288838B0D8823F426
:10190000E6464FF6FF7303EA0525354324F40056F7
:101910000C8903EA043434434E8803EA063626432E
:101920002E4CA04202D0334CA04205D122F4804478
:101930008A8903EA8212224382808583C988A0F8BB
:101940004010068470BD828B22F440628283828BB9
:101950004FF6FF7303EA01210A4382837047828BAB
:1019600022F00C028283828B0A4382837047028BAF
:1019700022F440620283028B4FF6FF7303EA0121D7
:101980000A4302837047F0B5048C24F010040484E9
:10199000078B048C4FF6FF7527F4734705EA033372
:1019A0003B4305EA02221A430C4B05EA0116984212
:1019B0000ED0104B98420BD0B0F1804F08D0084B9E
:1019C000984205D0074B984202D0074B984225D148
:1019D00024F02001314341F0100124E0002C0140AB
:1019E0000004004000080040000C004000100040CF
:1019F0000014004000340140004C01400050014000
:101A00000054014000180040001C0040002000402D
:101A100000400140004401400048014024F0A00380
:101A20000B4343F0100102830184F0BD028B22F0CE
:101A30000C020283028B0A430283704770B5048C48
:101A400024F001040484058B048C4FF6FF7606EA2B
:101A50000313134325F0F305F94A2B4390420ED0AC
:101A6000F84A90420BD0B0F1804F08D0F64A90422D
:101A700005D0F64A904202D0F54A904202D124F0B5
:101A8000020201E024F00A020A4342F0010103834A
:101A9000018470BD2DE9F05F0D4604460888E84FCB
:101AA000DFF8A0C3DFF8A0834988AA882B894FF00C
:101AB000804960B3042832D04FF6FF7E082836D024
:101AC000208C9B4620F480502084A38B268C70466B
:101AD00000EA022223F473431A4300EA0B30104356
:101AE0000EEA013EBC420BD0644509D04C4507D0FC
:101AF000444505D0D54A944202D0D54B9C4245D1AD
:101B000026F4005141EA0E0141F4805143E02046A1
:101B1000FFF794FFE9882046BDE8F05F86E720469E
:101B2000FFF731FFE9882046BDE8F05F1FE7208C12
:101B300020F480702084B4F81CA0208C0EEA0313DB
:101B400013432AF0F30A0EEA012B43EA0A03BC42CC
:101B50000BD0644509D04C4507D0444505D0BB4A5D
:101B6000944202D0BA4A944204D120F4007040EA70
:101B70000B0002E020F42060084340F48070A3834F
:101B80002084E9882046BDE8F05FE8E626F40242BA
:101B90000A4342F48051A08320462184E988BDE8AD
:101BA000F05FD0E62DE9F0410C4600264988074653
:101BB000012501B90226A288012A00D10225208828
:101BC00023890028384610D0FFF7DDFEE18838462B
:101BD000FFF7CDFE23892A4631463846FFF72EFF10
:101BE000E1883846BDE8F04120E7FFF727FFE188AC
:101BF0003846FFF71BFF23892A4631463846FFF750
:101C0000C2FEE1883846BDE8F041B0E610B50A886A
:101C10004B88CC881A438B8823431A430B891A4379
:101C20004B8989891A430A43A0F8442010BD4FF616
:101C3000FF71818000210180C18041800172704765
:101C40000021018041808180C180018141818181A9
:101C5000C181704700210180418001228280C180C2
:101C6000018170470021018041808180C180018114
:101C70004181818170470029018802D041F0010132
:101C800001E021F0010101807047002930F8441F74
:101C900002D041F4004101E0C1F30E010180704720
:101CA000002A828901D00A4300E08A43828170477A
:101CB000818270471143A0F848107047002A82893A
:101CC00001D00A4300E08A4382817047018921F0F4
:101CD000070101817047028922F070020A430281E4
:101CE000704700B50346FFF7F6FF188940F007007C
:101CF000188100BD70B516460D46602904464FF0A8
:101D0000010231460AD0FFF799FE29462046FFF727
:101D1000E2FF208940F00700208170BDFFF733FE0D
:101D2000F3E730B504894FF6FF7505EA0323134343
:101D3000E4B20B432343038130BD10B50446FFF7E3
:101D4000F0FF208940F07700208110BD10B50446D7
:101D5000FFF7E7FF208940F48040208110BD018516
:101D600082827047028822F070020A430280704724
:101D700070B50589048B068C25F007050D434FF6D9
:101D8000FC410C4040F201110C434FF6FF7101EA97
:101D9000031126F022061143314305810483018497
:101DA00070BD028B22F070020A4302837047028BDF
:101DB0004FF6FF7322F4E04203EA0121114301834D
:101DC0007047828B22F070020A4382837047828BB5
:101DD0004FF6FF7322F4E04203EA012111438183AD
:101DE00070470029018802D041F0800101E021F014
:101DF0008001018070470029818802D041F00401F0
:101E000001E021F00401818070470029818802D01F
:101E100041F0080101E021F00801818070470029AC
:101E2000818802D041F0010101E021F001018180AF
:101E30007047028B22F008020A43028370470000B9
:101E4000002C014000340140000400400008004024
:101E5000000C0040028B4FF6FF7322F4006203EA8D
:101E6000012111430183E9E7828B22F008020A4332
:101E70008283E3E7828B4FF6FF7322F4006203EA6A
:101E8000012111438183D9E7028B22F004020A4326
:101E90000283D3E7028B4FF6FF7322F4806203EADA
:101EA000012111430183C9E7828B22F004020A4316
:101EB0008283C3E7828B4FF6FF7322F4806203EACA
:101EC000012111438183B9E7028B22F080020A438A
:101ED0000283B3E7028B4FF6FF73C2F30E0203EAED
:101EE000012111430183A9E7828B22F080020A437A
:101EF0008283A3E7828B4FF6FF73C2F30E0203EADD
:101F000001211143818399E7028C22F002020A43E6
:101F1000028493E7028C22F008020A4302848DE7D0
:101F2000028C4FF6FF7322F0200203EA01111143E5
:101F3000018483E7028C4FF6FF7322F0800203EAEC
:101F400001111143018479E7028C4FF6FF7322F4EB
:101F5000007203EA0121114301846FE7028C4FF6FE
:101F6000FF7322F4006203EA01211143018465E753
:101F7000028C4FF6FF7322F4005203EA0131114341
:101F800001845BE710B50123048C8B409C430484DF
:101F9000038C8A401343038410BD10B50423048CC2
:101FA0008B409C430484038C8A401343038410BDFC
:101FB00030B50124058C00F118038C40A54305843D
:101FC00089B108290FD0091FC1F34E0018440168D8
:101FD00021F4E041016001684FF6FF7303EA022239
:101FE0001143016030BD03EB5100016821F0700125
:101FF00001600168F4E70029018802D041F0020184
:1020000001E021F00201018018E70029018802D0D7
:1020100041F0040101E021F0040101800EE70029F4
:10202000818802D041F0800101E021F080018180AF
:1020300004E7028822F00802028002880A43028034
:10204000FCE6828822F07002828082880A438280C5
:10205000F4E6028922F00702028102890A43028122
:10206000ECE6028922F08002028102890A430281A1
:10207000E4E68184E2E68185E0E68186DEE60187AA
:10208000DCE68187DAE6A0F84010D7E6028822F481
:102090004072028002880A430280CFE6808ECDE63D
:1020A000008FCBE6808FC9E6B0F84000C6E6808C92
:1020B000C4E6008DC2E602460020128A0A4200D021
:1020C0000120BBE6C9430182B8E602460020138A1C
:1020D00092890B4202EA010202D0002A00D00120BC
:1020E000ACE6C9430182A9E6C64910B588420AD1C7
:1020F00001218C032046FEF791FE2046BDE81040EA
:102100000021FEF78BBEC049884202D101214C0458
:1021100010E0BE49884202D101218C040AE0BC498A
:10212000884202D10121CC0404E0BA4988420AD194
:1021300001210C052046FEF77AFE2046BDE810403E
:102140000021FEF774BE10BD30B50446008A85B08C
:102150000D464CF6FF710840E98801432182A189B0
:102160004EF6F3100140A8882A8910436A890A4371
:102170001043A081A08A4FF6FF410840A98901437E
:10218000A1826846FEF7EEFD9E48844201D1039885
:1021900000E00298A1890904002900EBC00101EBCD
:1021A0000010296802DA4FEA410101E04FEA81019B
:1021B000B0FBF1F06422B0FBF2F14FEA01114FEAFB
:1021C00011136FF018056B4300EB8300A3891D0406
:1021D0004FF0320306D503EBC000B0FBF2F000F085
:1021E000070005E003EB0010B0FBF2F000F00F0079
:1021F0000843208105B030BD4FF416510160002125
:102200008180C18001810C2242818181704710B59B
:10221000038A4FF2FF0213400A884C8822438C88BD
:10222000C9880C4322431A43028210BD0021018059
:1022300041808180C18070470029818902D041F4AA
:10224000005101E021F400518181704710B5C1F3C4
:10225000421301F01F040121A140012B07D0022BE2
:1022600007D01430002A026805D00A4304E00C307D
:10227000F8E71030F6E78A43026010BD002A828A30
:1022800001D00A4300E08A4382827047028A22F02A
:102290000F020282028A0A4302827047828922F474
:1022A0000062828182890A43828170470029818984
:1022B00002D041F0020101E021F00201818170476A
:1022C000028A22F020020282028A0A4302827047B6
:1022D0000029018A02D041F4804101E021F48041CB
:1022E00001827047C1F30801818070478088C0F384
:1022F00008007047818941F0010181817047028B9C
:10230000D2B20283028B42EA012101837047028B21
:1023100002F47F420283028B0A4302837047002942
:10232000818A02D041F0200101E021F02001818268
:1023300070470029818A02D041F0100101E021F0AC
:102340001001818270470029818A02D041F0080182
:1023500001E021F00801818270470029818902D0C3
:1023600041F4004101E0C1F30E0181817047002971
:10237000818A02D041F4006101E021F40061818290
:102380007047828A22F004028282828A0A43828211
:1023900070470029818A02D041F0020101E021F05A
:1023A0000201818270470246002012880A4200D052
:1023B00001207047C9430180704730B501F01F020A
:1023C00001240025C1F3421304FA02F2012B0FD0BD
:1023D000022B0FD0838A4FEA11210088134204FA9E
:1023E00001F400EA040001D000B10125284630BD07
:1023F0008389F0E7038AEEE70A0A01219140C94385
:10240000018070470038014000440040004800400F
:10241000004C0040005000400CB500214C48019198
:102420000091026842F4803202604FF4A0630268B7
:1024300002F400320092019A521C0192009A12B9E1
:10244000019A9A42F3D10268920333D50121009197
:1024500040490A6842F010020A600A6822F003024A
:102460000A600A6842F002020A60416841604168FD
:102470004160416841F480614160416821F47C1110
:102480004160416841F4E8114160016841F08071A8
:10249000016001688901FCD5416821F003014160B8
:1024A000416841F0020141604168C1F381010229A4
:1024B000FAD10CBD00910CBD254810B5016841F062
:1024C000010101604168244A114041600168234ACA
:1024D00011400160016821F480210160416821F40C
:1024E000FE0141604FF41F018160FFF795FF1C4919
:1024F0004FF00060086010BD154910B54868194AD2
:1025000010F00C03184803D0042B01D0082B0BD07B
:1025100002604968144AC1F30311121D515C02683C
:1025200022FA01F2026010BD4A684B6802F4701290
:102530004FF0020413F4803F04EB924202D04B6848
:102540009B0301D5094B00E0064B5A43E0E700002E
:1025500000100240002002400000FFF8FFFFF6FEDE
:1025600008ED00E000127A006400002000093D0040
:102570000648804706480047FEE7FEE7FEE7FEE71D
:10258000FEE7FEE7FEE7FEE7FEE7FEE7B924000808
:10259000ED000008D2B201E000F8012B491EFBD289
:1025A00070470022F6E710B513460A46044619465E
:1025B000FFF7F0FF204610BDF0B480EA0102D40F0F
:1025C0004200B2EB410F02D20246084611464A00D1
:1025D00042D0C30DDDB2C1F3C752AD1A202D35DA9A
:1025E000C1F3160141F4000204B15242C5F12006C4
:1025F00002FA06F12A411044B3EBD05F23D0C4B1F4
:10260000012DA0EBC35009DCF0BC4FF0004202EA00
:10261000C35200F50000DBB200F0F4BA400000F154
:10262000807000EBC350A0F1807040EAD170490087
:1026300009E0490841EAC071A0EBC35000F5000071
:10264000400800EBC350F0BC00F0D3BA6142012255
:1026500002EB4101001BF6E7F0BC704781F000413E
:10266000AAE780F00040A7E780EA010210B502F077
:102670000043400026D04A0023D04FEA106101EB0E
:102680001261C0F35600C2F3560240F4000042F457
:102690000002A0FB0220A1F17F014FEA00401404D8
:1026A00001D000F1010050EA124001D44000491E5F
:1026B000C2B20C0604EBD010401C4008802A02D0A5
:1026C00003E0002010BD20F00100002900DA002006
:1026D000184310BD30B480EA010202F0004530F02A
:1026E000004221F0004015D0A0B1C0F3C753C2F39F
:1026F000C754C2F31601C0F31600E41A41F40001F6
:1027000040F400027D34914201D3641C00E0490092
:10271000002C02DA30BC002070474FF40000002388
:10272000914201D3891A034340084FEA4101F7D18E
:1027300051B1914202D14FF0004105E002D24FF079
:10274000010101E06FF0010103EBC450284430BCEB
:1027500000F04FBA2DE9FE4F804681EA0300C00F1A
:102760000C46009021F0004123F00045B8EB020038
:10277000A94105D24046214690461C460B460246DA
:1027800023F00040104304D14046214603B0BDE889
:10279000F08F270DC7F30A00C3F30A510290401AC5
:1027A0000190402866DAC3F3130040F4801B0098C0
:1027B000924620B10023D2EB030A63EB0B0B019886
:1027C0005946C0F14002504600F0E2F906460D4677
:1027D00050465946019A00F0FAF910EB08006141A1
:1027E000002487EA115284EAE7731A433BD0009A27
:1027F0003AB3019A012A4FEA075210DC001B61EB41
:1028000002014FF0004202EA0752CDE90042001CEB
:1028100041F5801132462B4600F02EFAB6E7001B38
:1028200061EB0201001C41F5801300185B41201888
:10283000A2F5001747EB030140EAD570B6196D41C8
:1028400011E06D084FEA360645EAC0754FEA0752B7
:10285000001B61EB0201001C41F5801149084FEAA1
:1028600030000019514132462B4603B0BDE8F04F0D
:1028700000F0F5B90098012240000023D0EB0202DD
:1028800063EBE073009821464FEAE074B8EB000078
:1028900061EB0401E9E783F000435BE781F000416D
:1028A00058E72DE9FE4F81EA030404F0004421F0CB
:1028B000004100944FF0000B23F0004350EA010464
:1028C00002D052EA030404D10020014603B0BDE85F
:1028D000F08FC3F30A54C1F30A552C44A4F2F33425
:1028E0000194A0FB0254C1F3130141F48011C3F31E
:1028F000130343F4801301FB024400FB034E840ADC
:10290000970A44EA815447EA8357A4FB0768029573
:102910008D0A05FB07854FEA932C04FB0C54270511
:10292000029D4FEA065847EA1637B5EB08056EEBED
:10293000070C870E920E47EA811742EA8312A7FB23
:102940000201B6EB0B0164EB00042B0D43EA0C33E0
:102950005E1844EB1C50DA465146E7FB0201C5F312
:1029600013044FEA0B3343EA14534FEA0432019C39
:1029700043EA0603A4F10C040294009CCDE900B4E0
:1029800000F07AF9A2E72DE9F04D81EA030404F0A2
:10299000004B21F0004514464FF0000A23F000419F
:1029A00050EA050220D054EA01021DD0C5F30A57AF
:1029B0000246C5F31303C1F31300C1F30A5640F4F2
:1029C000801543F48013A7EB0608101BD64608F2C7
:1029D000FD3873EB050002D308F1010801E09218FD
:1029E0005B41B8F1000F03DA00200146BDE8F08D2D
:1029F00000204FF48011064684460EE0171B73EB4F
:102A0000050705D3121B63EB050306434CEA010CD3
:102A100049084FEA300092185B4150EA0107EDD1B6
:102A200052EA030012D082EA040083EA0501084357
:102A300003D100224FF0004308E0101BAB4102D24B
:102A40000122002302E06FF0010253101AEB06008E
:102A50004CEB085110EB0A0041EB0B01BDE8F04DC7
:102A600000F0FDB870B521F0004303430CD0C1F372
:102A70000A550024D5EB040564EB0403D617AD1A00
:102A8000B34102DB0020014670BD201841EB02512A
:102A900070BDC10F80EAE0700844CA079623002188
:102AA00000F0B0B870B5C1F30A5201F0004500243F
:102AB000C1F3130140F2FF3341F480119A4201DA6D
:102AC000002070BD40F233439A42A2F2334203DC4D
:102AD000524200F06CF800E090402C43F1D04042AC
:102AE00070BD00F0004230F000400AD0C10D01F589
:102AF0006071C0F3160042EA0151C2084007114359
:102B0000704700200146704730B5002904DB4FF0C4
:102B10000044404264EB0101002B04DB4FF0004411
:102B2000524264EB03038B4208BF824230BD000077
:102B300030B5002904DB4FF00044404264EB010152
:102B4000002B04DB4FF00044524264EB0303994234
:102B500008BF904230BD000001F0004330B421F0C6
:102B6000004150EA010206D00A0DA2F56072C1F3DD
:102B70001301002A02DC30BC00207047440F44EAF5
:102B8000C104C100E01830BC00EBC25000F031B805
:102B9000202A04DB203A00FA02F10020704791401D
:102BA000C2F1200320FA03F3194390407047202A12
:102BB00004DB203A21FA02F00021704721FA02F3E7
:102BC000D040C2F120029140084319467047202AA4
:102BD00006DBCB17203A41FA02F043EAE07306E045
:102BE00041FA02F3D040C2F1200291400843194655
:102BF00070470029A8BF7047401C490008BF20F05B
:102C00000100704710B4B0FA80FC00FA0CF050EAF2
:102C1000010404BF10BC704749B1CCF1200421FA73
:102C200004F411FA0CF118BF012121430843A3EB6E
:102C30000C01CB1D0106000A002BBEBF002010BCFA
:102C4000704700EBC35010440029A4BF10BC70476C
:102C5000401C490008BF20F0010010BC704710B5AF
:102C6000002B08DA401C41F1000192185B411A4325
:102C700001D120F0010010BD2DE9F04D92469B4698
:102C800011B1B1FA81F202E0B0FA80F2203290463E
:102C9000FFF77EFF04460F4640EA0A0041EA0B01B7
:102CA00053465A46084303D120463946BDE8F08DC5
:102CB000114653EA010015D0C8F140025046FFF713
:102CC00076FF05460E46504659464246FFF760FFDE
:102CD000084301D0012000E00020054346EAE076E9
:102CE0002C4337430A984FEA4453A0EB08004FEABD
:102CF000D4240A304FF0000244EA47544FEAD72563
:102D000002D500200146D1E7010510196941DDE92E
:102D1000084500196941BDE8F04DA0E7064C074D94
:102D200006E0E06840F0010394E80700984710349B
:102D3000AC42F6D3FDF7DEF9602D0008802D0008C7
:102D400002E008C8121F08C1002AFAD17047704774
:102D5000002001E001C1121F002AFBD170470000D2
:102D6000802D00080000002078000000402D0008A1
:102D7000F82D00087800002068060000502D00089B
:102D800000000000F401000030000000000000001E
:102D90000000000000000000000000000000000033
:102DA0000000000000000000000000000000000023
:102DB0000000000000000000000000000000000013
:102DC000000000008306000000000000000000007A
:102DD00002040608000000000102030401020304CB
:102DE0000607080900A24A040000000000000000D5
:082DF0000102030406070809B3
:04000005080000ED02
:00000001FF
